{
  "_format": "hh-sol-artifact-1",
  "contractName": "Upload",
  "sourceName": "contracts/Upload.sol",
  "abi": [
    {
      "inputs": [
        {
          "internalType": "address",
          "name": "_user",
          "type": "address"
        },
        {
          "internalType": "string",
          "name": "url",
          "type": "string"
        }
      ],
      "name": "add",
      "outputs": [],
      "stateMutability": "nonpayable",
      "type": "function"
    },
    {
      "inputs": [
        {
          "internalType": "address",
          "name": "user",
          "type": "address"
        }
      ],
      "name": "allow",
      "outputs": [],
      "stateMutability": "nonpayable",
      "type": "function"
    },
    {
      "inputs": [
        {
          "internalType": "address",
          "name": "user",
          "type": "address"
        }
      ],
      "name": "disallow",
      "outputs": [],
      "stateMutability": "nonpayable",
      "type": "function"
    },
    {
      "inputs": [
        {
          "internalType": "address",
          "name": "_user",
          "type": "address"
        }
      ],
      "name": "display",
      "outputs": [
        {
          "internalType": "string[]",
          "name": "",
          "type": "string[]"
        }
      ],
      "stateMutability": "view",
      "type": "function"
    },
    {
      "inputs": [],
      "name": "shareAccess",
      "outputs": [
        {
          "components": [
            {
              "internalType": "address",
              "name": "user",
              "type": "address"
            },
            {
              "internalType": "bool",
              "name": "access",
              "type": "bool"
            }
          ],
          "internalType": "struct Upload.Access[]",
          "name": "",
          "type": "tuple[]"
        }
      ],
      "stateMutability": "view",
      "type": "function"
    }
  ],
  "bytecode": "0x608060405234801561001057600080fd5b506108cf806100206000396000f3fe608060405234801561001057600080fd5b50600436106100575760003560e01c806336d6da551461005c578063a9ed9cb814610071578063bc8bef8114610084578063eb39113f146100a2578063ff9913e8146100c2575b600080fd5b61006f61006a366004610646565b6100d5565b005b61006f61007f366004610708565b610114565b61008c6101fc565b604051610099919061072a565b60405180910390f35b6100b56100b0366004610708565b61027f565b6040516100999190610784565b61006f6100d0366004610708565b6103eb565b6001600160a01b0382166000908152602081815260408220805460018101825590835291819020835161010f93919091019184019061057b565b505050565b3360009081526001602090815260408083206001600160a01b03851684529091528120805460ff191690555b336000908152600260205260409020548110156101f85733600090815260026020526040902080546001600160a01b0384169190839081106101845761018461081f565b6000918252602090912001546001600160a01b031614156101e6573360009081526002602052604081208054839081106101c0576101c061081f565b60009182526020909120018054911515600160a01b0260ff60a01b199092169190911790555b806101f081610835565b915050610140565b5050565b336000908152600260209081526040808320805482518185028101850190935280835260609492939192909184015b8282101561027657600084815260209081902060408051808201909152908401546001600160a01b0381168252600160a01b900460ff1615158183015282526001909201910161022b565b50505050905090565b60606001600160a01b0382163314806102bb57506001600160a01b038216600090815260016020908152604080832033845290915290205460ff165b6103035760405162461bcd60e51b8152602060048201526015602482015274596f7520646f6e277420686176652061636365737360581b604482015260640160405180910390fd5b6001600160a01b03821660009081526020818152604080832080548251818502810185019093528083529193909284015b828210156103e05783829060005260206000200180546103539061085e565b80601f016020809104026020016040519081016040528092919081815260200182805461037f9061085e565b80156103cc5780601f106103a1576101008083540402835291602001916103cc565b820191906000526020600020905b8154815290600101906020018083116103af57829003601f168201915b505050505081526020019060010190610334565b505050509050919050565b3360008181526001602081815260408084206001600160a01b038716808652908352818520805460ff19169094179093559383526003815283832091835252205460ff16156104f35760005b336000908152600260205260409020548110156101f85733600090815260026020526040902080546001600160a01b03841691908390811061047b5761047b61081f565b6000918252602090912001546001600160a01b031614156104e157336000908152600260205260409020805460019190839081106104bb576104bb61081f565b60009182526020909120018054911515600160a01b0260ff60a01b199092169190911790555b806104eb81610835565b915050610437565b336000818152600260209081526040808320815180830183526001600160a01b03878116808352600183870181815285548083018755958952878920945194909501805495511515600160a01b026001600160a81b03199096169490931693909317939093179055948452600383528184209084529091529020805460ff1916909117905550565b8280546105879061085e565b90600052602060002090601f0160209004810192826105a957600085556105ef565b82601f106105c257805160ff19168380011785556105ef565b828001600101855582156105ef579182015b828111156105ef5782518255916020019190600101906105d4565b506105fb9291506105ff565b5090565b5b808211156105fb5760008155600101610600565b80356001600160a01b038116811461062b57600080fd5b919050565b634e487b7160e01b600052604160045260246000fd5b6000806040838503121561065957600080fd5b61066283610614565b9150602083013567ffffffffffffffff8082111561067f57600080fd5b818501915085601f83011261069357600080fd5b8135818111156106a5576106a5610630565b604051601f8201601f19908116603f011681019083821181831017156106cd576106cd610630565b816040528281528860208487010111156106e657600080fd5b8260208601602083013760006020848301015280955050505050509250929050565b60006020828403121561071a57600080fd5b61072382610614565b9392505050565b602080825282518282018190526000919060409081850190868401855b8281101561077757815180516001600160a01b031685528601511515868501529284019290850190600101610747565b5091979650505050505050565b6000602080830181845280855180835260408601915060408160051b87010192508387016000805b8381101561081157888603603f1901855282518051808852835b818110156107e1578281018a01518982018b015289016107c6565b818111156107f157848a838b0101525b50601f01601f1916969096018701955093860193918601916001016107ac565b509398975050505050505050565b634e487b7160e01b600052603260045260246000fd5b600060001982141561085757634e487b7160e01b600052601160045260246000fd5b5060010190565b600181811c9082168061087257607f821691505b6020821081141561089357634e487b7160e01b600052602260045260246000fd5b5091905056fea264697066735822122054905ba130b20e2fa5af180d91fa0f7ac53508caccbd55de4934c4bb6589d27964736f6c63430008090033",
  "linkReferences": {},
  "deployedLinkReferences": {}
}